{
  "_format": "hh-sol-artifact-1",
  "contractName": "NFT",
  "sourceName": "contracts/NFT.sol",
  "abi": [
    {
      "inputs": [],
      "stateMutability": "nonpayable",
      "type": "constructor"
    },
    {
      "anonymous": false,
      "inputs": [
        {
          "indexed": true,
          "internalType": "address",
          "name": "owner",
          "type": "address"
        },
        {
          "indexed": true,
          "internalType": "address",
          "name": "approved",
          "type": "address"
        },
        {
          "indexed": true,
          "internalType": "uint256",
          "name": "tokenId",
          "type": "uint256"
        }
      ],
      "name": "Approval",
      "type": "event"
    },
    {
      "anonymous": false,
      "inputs": [
        {
          "indexed": true,
          "internalType": "address",
          "name": "owner",
          "type": "address"
        },
        {
          "indexed": true,
          "internalType": "address",
          "name": "operator",
          "type": "address"
        },
        {
          "indexed": false,
          "internalType": "bool",
          "name": "approved",
          "type": "bool"
        }
      ],
      "name": "ApprovalForAll",
      "type": "event"
    },
    {
      "anonymous": false,
      "inputs": [
        {
          "indexed": true,
          "internalType": "address",
          "name": "previousOwner",
          "type": "address"
        },
        {
          "indexed": true,
          "internalType": "address",
          "name": "newOwner",
          "type": "address"
        }
      ],
      "name": "OwnershipTransferred",
      "type": "event"
    },
    {
      "anonymous": false,
      "inputs": [
        {
          "indexed": true,
          "internalType": "address",
          "name": "from",
          "type": "address"
        },
        {
          "indexed": true,
          "internalType": "address",
          "name": "to",
          "type": "address"
        },
        {
          "indexed": true,
          "internalType": "uint256",
          "name": "tokenId",
          "type": "uint256"
        }
      ],
      "name": "Transfer",
      "type": "event"
    },
    {
      "inputs": [
        {
          "internalType": "address",
          "name": "to",
          "type": "address"
        },
        {
          "internalType": "uint256",
          "name": "tokenId",
          "type": "uint256"
        }
      ],
      "name": "approve",
      "outputs": [],
      "stateMutability": "nonpayable",
      "type": "function"
    },
    {
      "inputs": [
        {
          "internalType": "address",
          "name": "owner",
          "type": "address"
        }
      ],
      "name": "balanceOf",
      "outputs": [
        {
          "internalType": "uint256",
          "name": "",
          "type": "uint256"
        }
      ],
      "stateMutability": "view",
      "type": "function"
    },
    {
      "inputs": [
        {
          "internalType": "uint256",
          "name": "tokenId",
          "type": "uint256"
        }
      ],
      "name": "burn",
      "outputs": [],
      "stateMutability": "nonpayable",
      "type": "function"
    },
    {
      "inputs": [
        {
          "internalType": "uint256",
          "name": "tokenId",
          "type": "uint256"
        }
      ],
      "name": "getApproved",
      "outputs": [
        {
          "internalType": "address",
          "name": "",
          "type": "address"
        }
      ],
      "stateMutability": "view",
      "type": "function"
    },
    {
      "inputs": [],
      "name": "getTokenId",
      "outputs": [
        {
          "internalType": "uint256",
          "name": "",
          "type": "uint256"
        }
      ],
      "stateMutability": "view",
      "type": "function"
    },
    {
      "inputs": [
        {
          "internalType": "address",
          "name": "owner",
          "type": "address"
        },
        {
          "internalType": "address",
          "name": "operator",
          "type": "address"
        }
      ],
      "name": "isApprovedForAll",
      "outputs": [
        {
          "internalType": "bool",
          "name": "",
          "type": "bool"
        }
      ],
      "stateMutability": "view",
      "type": "function"
    },
    {
      "inputs": [],
      "name": "name",
      "outputs": [
        {
          "internalType": "string",
          "name": "",
          "type": "string"
        }
      ],
      "stateMutability": "view",
      "type": "function"
    },
    {
      "inputs": [],
      "name": "owner",
      "outputs": [
        {
          "internalType": "address",
          "name": "",
          "type": "address"
        }
      ],
      "stateMutability": "view",
      "type": "function"
    },
    {
      "inputs": [
        {
          "internalType": "uint256",
          "name": "tokenId",
          "type": "uint256"
        }
      ],
      "name": "ownerOf",
      "outputs": [
        {
          "internalType": "address",
          "name": "",
          "type": "address"
        }
      ],
      "stateMutability": "view",
      "type": "function"
    },
    {
      "inputs": [],
      "name": "renounceOwnership",
      "outputs": [],
      "stateMutability": "nonpayable",
      "type": "function"
    },
    {
      "inputs": [
        {
          "internalType": "address",
          "name": "to",
          "type": "address"
        },
        {
          "internalType": "string",
          "name": "uri",
          "type": "string"
        }
      ],
      "name": "safeMint",
      "outputs": [],
      "stateMutability": "nonpayable",
      "type": "function"
    },
    {
      "inputs": [
        {
          "internalType": "address",
          "name": "from",
          "type": "address"
        },
        {
          "internalType": "address",
          "name": "to",
          "type": "address"
        },
        {
          "internalType": "uint256",
          "name": "tokenId",
          "type": "uint256"
        }
      ],
      "name": "safeTransferFrom",
      "outputs": [],
      "stateMutability": "nonpayable",
      "type": "function"
    },
    {
      "inputs": [
        {
          "internalType": "address",
          "name": "from",
          "type": "address"
        },
        {
          "internalType": "address",
          "name": "to",
          "type": "address"
        },
        {
          "internalType": "uint256",
          "name": "tokenId",
          "type": "uint256"
        },
        {
          "internalType": "bytes",
          "name": "data",
          "type": "bytes"
        }
      ],
      "name": "safeTransferFrom",
      "outputs": [],
      "stateMutability": "nonpayable",
      "type": "function"
    },
    {
      "inputs": [
        {
          "internalType": "address",
          "name": "operator",
          "type": "address"
        },
        {
          "internalType": "bool",
          "name": "approved",
          "type": "bool"
        }
      ],
      "name": "setApprovalForAll",
      "outputs": [],
      "stateMutability": "nonpayable",
      "type": "function"
    },
    {
      "inputs": [
        {
          "internalType": "bytes4",
          "name": "interfaceId",
          "type": "bytes4"
        }
      ],
      "name": "supportsInterface",
      "outputs": [
        {
          "internalType": "bool",
          "name": "",
          "type": "bool"
        }
      ],
      "stateMutability": "view",
      "type": "function"
    },
    {
      "inputs": [],
      "name": "symbol",
      "outputs": [
        {
          "internalType": "string",
          "name": "",
          "type": "string"
        }
      ],
      "stateMutability": "view",
      "type": "function"
    },
    {
      "inputs": [
        {
          "internalType": "uint256",
          "name": "tokenId",
          "type": "uint256"
        }
      ],
      "name": "tokenURI",
      "outputs": [
        {
          "internalType": "string",
          "name": "",
          "type": "string"
        }
      ],
      "stateMutability": "view",
      "type": "function"
    },
    {
      "inputs": [
        {
          "internalType": "address",
          "name": "from",
          "type": "address"
        },
        {
          "internalType": "address",
          "name": "to",
          "type": "address"
        },
        {
          "internalType": "uint256",
          "name": "tokenId",
          "type": "uint256"
        }
      ],
      "name": "transferFrom",
      "outputs": [],
      "stateMutability": "nonpayable",
      "type": "function"
    },
    {
      "inputs": [
        {
          "internalType": "address",
          "name": "newOwner",
          "type": "address"
        }
      ],
      "name": "transferOwnership",
      "outputs": [],
      "stateMutability": "nonpayable",
      "type": "function"
    }
  ],
  "bytecode": "0x60806040523480156200001157600080fd5b506040518060400160405280600481526020017f4f70336e000000000000000000000000000000000000000000000000000000008152506040518060400160405280600381526020017f4f50330000000000000000000000000000000000000000000000000000000000815250816000908051906020019062000096929190620001a6565b508060019080519060200190620000af929190620001a6565b505050620000d2620000c6620000d860201b60201c565b620000e060201b60201c565b620002bb565b600033905090565b6000600760009054906101000a900473ffffffffffffffffffffffffffffffffffffffff16905081600760006101000a81548173ffffffffffffffffffffffffffffffffffffffff021916908373ffffffffffffffffffffffffffffffffffffffff1602179055508173ffffffffffffffffffffffffffffffffffffffff168173ffffffffffffffffffffffffffffffffffffffff167f8be0079c531659141344cd1fd0a4f28419497f9722a3daafe3b4186f6b6457e060405160405180910390a35050565b828054620001b49062000285565b90600052602060002090601f016020900481019282620001d8576000855562000224565b82601f10620001f357805160ff191683800117855562000224565b8280016001018555821562000224579182015b828111156200022357825182559160200191906001019062000206565b5b50905062000233919062000237565b5090565b5b808211156200025257600081600090555060010162000238565b5090565b7f4e487b7100000000000000000000000000000000000000000000000000000000600052602260045260246000fd5b600060028204905060018216806200029e57607f821691505b60208210811415620002b557620002b462000256565b5b50919050565b61310380620002cb6000396000f3fe608060405234801561001057600080fd5b50600436106101215760003560e01c806370a08231116100ad578063b88d4fde11610071578063b88d4fde146102f4578063c87b56dd14610310578063d204c45e14610340578063e985e9c51461035c578063f2fde38b1461038c57610121565b806370a0823114610262578063715018a6146102925780638da5cb5b1461029c57806395d89b41146102ba578063a22cb465146102d857610121565b8063095ea7b3116100f4578063095ea7b3146101c257806323b872dd146101de57806342842e0e146101fa57806342966c68146102165780636352211e1461023257610121565b8063010a38f51461012657806301ffc9a71461014457806306fdde0314610174578063081812fc14610192575b600080fd5b61012e6103a8565b60405161013b919061205c565b60405180910390f35b61015e600480360381019061015991906120e3565b6103b9565b60405161016b919061212b565b60405180910390f35b61017c61049b565b60405161018991906121df565b60405180910390f35b6101ac60048036038101906101a7919061222d565b61052d565b6040516101b9919061229b565b60405180910390f35b6101dc60048036038101906101d791906122e2565b610573565b005b6101f860048036038101906101f39190612322565b61068b565b005b610214600480360381019061020f9190612322565b6106eb565b005b610230600480360381019061022b919061222d565b61070b565b005b61024c6004803603810190610247919061222d565b610767565b604051610259919061229b565b60405180910390f35b61027c60048036038101906102779190612375565b6107ee565b604051610289919061205c565b60405180910390f35b61029a6108a6565b005b6102a46108ba565b6040516102b1919061229b565b60405180910390f35b6102c26108e4565b6040516102cf91906121df565b60405180910390f35b6102f260048036038101906102ed91906123ce565b610976565b005b61030e60048036038101906103099190612543565b61098c565b005b61032a6004803603810190610325919061222d565b6109ee565b60405161033791906121df565b60405180910390f35b61035a60048036038101906103559190612667565b610a00565b005b610376600480360381019061037191906126c3565b610a39565b604051610383919061212b565b60405180910390f35b6103a660048036038101906103a19190612375565b610acd565b005b60006103b46008610b51565b905090565b60007f80ac58cd000000000000000000000000000000000000000000000000000000007bffffffffffffffffffffffffffffffffffffffffffffffffffffffff1916827bffffffffffffffffffffffffffffffffffffffffffffffffffffffff1916148061048457507f5b5e139f000000000000000000000000000000000000000000000000000000007bffffffffffffffffffffffffffffffffffffffffffffffffffffffff1916827bffffffffffffffffffffffffffffffffffffffffffffffffffffffff1916145b80610494575061049382610b5f565b5b9050919050565b6060600080546104aa90612732565b80601f01602080910402602001604051908101604052809291908181526020018280546104d690612732565b80156105235780601f106104f857610100808354040283529160200191610523565b820191906000526020600020905b81548152906001019060200180831161050657829003601f168201915b5050505050905090565b600061053882610bc9565b6004600083815260200190815260200160002060009054906101000a900473ffffffffffffffffffffffffffffffffffffffff169050919050565b600061057e82610767565b90508073ffffffffffffffffffffffffffffffffffffffff168373ffffffffffffffffffffffffffffffffffffffff1614156105ef576040517f08c379a00000000000000000000000000000000000000000000000000000000081526004016105e6906127d6565b60405180910390fd5b8073ffffffffffffffffffffffffffffffffffffffff1661060e610c14565b73ffffffffffffffffffffffffffffffffffffffff16148061063d575061063c81610637610c14565b610a39565b5b61067c576040517f08c379a000000000000000000000000000000000000000000000000000000000815260040161067390612868565b60405180910390fd5b6106868383610c1c565b505050565b61069c610696610c14565b82610cd5565b6106db576040517f08c379a00000000000000000000000000000000000000000000000000000000081526004016106d2906128fa565b60405180910390fd5b6106e6838383610d6a565b505050565b6107068383836040518060200160405280600081525061098c565b505050565b61071c610716610c14565b82610cd5565b61075b576040517f08c379a0000000000000000000000000000000000000000000000000000000008152600401610752906128fa565b60405180910390fd5b61076481611064565b50565b60008061077383611070565b9050600073ffffffffffffffffffffffffffffffffffffffff168173ffffffffffffffffffffffffffffffffffffffff1614156107e5576040517f08c379a00000000000000000000000000000000000000000000000000000000081526004016107dc90612966565b60405180910390fd5b80915050919050565b60008073ffffffffffffffffffffffffffffffffffffffff168273ffffffffffffffffffffffffffffffffffffffff16141561085f576040517f08c379a0000000000000000000000000000000000000000000000000000000008152600401610856906129f8565b60405180910390fd5b600360008373ffffffffffffffffffffffffffffffffffffffff1673ffffffffffffffffffffffffffffffffffffffff168152602001908152602001600020549050919050565b6108ae6110ad565b6108b8600061112b565b565b6000600760009054906101000a900473ffffffffffffffffffffffffffffffffffffffff16905090565b6060600180546108f390612732565b80601f016020809104026020016040519081016040528092919081815260200182805461091f90612732565b801561096c5780601f106109415761010080835404028352916020019161096c565b820191906000526020600020905b81548152906001019060200180831161094f57829003601f168201915b5050505050905090565b610988610981610c14565b83836111f1565b5050565b61099d610997610c14565b83610cd5565b6109dc576040517f08c379a00000000000000000000000000000000000000000000000000000000081526004016109d3906128fa565b60405180910390fd5b6109e88484848461135e565b50505050565b60606109f9826113ba565b9050919050565b610a086110ad565b610a1260086114cd565b6000610a1e6008610b51565b9050610a2a83826114e3565b610a348183611501565b505050565b6000600560008473ffffffffffffffffffffffffffffffffffffffff1673ffffffffffffffffffffffffffffffffffffffff16815260200190815260200160002060008373ffffffffffffffffffffffffffffffffffffffff1673ffffffffffffffffffffffffffffffffffffffff16815260200190815260200160002060009054906101000a900460ff16905092915050565b610ad56110ad565b600073ffffffffffffffffffffffffffffffffffffffff168173ffffffffffffffffffffffffffffffffffffffff161415610b45576040517f08c379a0000000000000000000000000000000000000000000000000000000008152600401610b3c90612a8a565b60405180910390fd5b610b4e8161112b565b50565b600081600001549050919050565b60007f01ffc9a7000000000000000000000000000000000000000000000000000000007bffffffffffffffffffffffffffffffffffffffffffffffffffffffff1916827bffffffffffffffffffffffffffffffffffffffffffffffffffffffff1916149050919050565b610bd281611575565b610c11576040517f08c379a0000000000000000000000000000000000000000000000000000000008152600401610c0890612966565b60405180910390fd5b50565b600033905090565b816004600083815260200190815260200160002060006101000a81548173ffffffffffffffffffffffffffffffffffffffff021916908373ffffffffffffffffffffffffffffffffffffffff160217905550808273ffffffffffffffffffffffffffffffffffffffff16610c8f83610767565b73ffffffffffffffffffffffffffffffffffffffff167f8c5be1e5ebec7d5bd14f71427d1e84f3dd0314c0f7b2291e5b200ac8c7c3b92560405160405180910390a45050565b600080610ce183610767565b90508073ffffffffffffffffffffffffffffffffffffffff168473ffffffffffffffffffffffffffffffffffffffff161480610d235750610d228185610a39565b5b80610d6157508373ffffffffffffffffffffffffffffffffffffffff16610d498461052d565b73ffffffffffffffffffffffffffffffffffffffff16145b91505092915050565b8273ffffffffffffffffffffffffffffffffffffffff16610d8a82610767565b73ffffffffffffffffffffffffffffffffffffffff1614610de0576040517f08c379a0000000000000000000000000000000000000000000000000000000008152600401610dd790612b1c565b60405180910390fd5b600073ffffffffffffffffffffffffffffffffffffffff168273ffffffffffffffffffffffffffffffffffffffff161415610e50576040517f08c379a0000000000000000000000000000000000000000000000000000000008152600401610e4790612bae565b60405180910390fd5b610e5d83838360016115b6565b8273ffffffffffffffffffffffffffffffffffffffff16610e7d82610767565b73ffffffffffffffffffffffffffffffffffffffff1614610ed3576040517f08c379a0000000000000000000000000000000000000000000000000000000008152600401610eca90612b1c565b60405180910390fd5b6004600082815260200190815260200160002060006101000a81549073ffffffffffffffffffffffffffffffffffffffff02191690556001600360008573ffffffffffffffffffffffffffffffffffffffff1673ffffffffffffffffffffffffffffffffffffffff168152602001908152602001600020600082825403925050819055506001600360008473ffffffffffffffffffffffffffffffffffffffff1673ffffffffffffffffffffffffffffffffffffffff16815260200190815260200160002060008282540192505081905550816002600083815260200190815260200160002060006101000a81548173ffffffffffffffffffffffffffffffffffffffff021916908373ffffffffffffffffffffffffffffffffffffffff160217905550808273ffffffffffffffffffffffffffffffffffffffff168473ffffffffffffffffffffffffffffffffffffffff167fddf252ad1be2c89b69c2b068fc378daa952ba7f163c4a11628f55a4df523b3ef60405160405180910390a461105f83838360016116dc565b505050565b61106d816116e2565b50565b60006002600083815260200190815260200160002060009054906101000a900473ffffffffffffffffffffffffffffffffffffffff169050919050565b6110b5610c14565b73ffffffffffffffffffffffffffffffffffffffff166110d36108ba565b73ffffffffffffffffffffffffffffffffffffffff1614611129576040517f08c379a000000000000000000000000000000000000000000000000000000000815260040161112090612c1a565b60405180910390fd5b565b6000600760009054906101000a900473ffffffffffffffffffffffffffffffffffffffff16905081600760006101000a81548173ffffffffffffffffffffffffffffffffffffffff021916908373ffffffffffffffffffffffffffffffffffffffff1602179055508173ffffffffffffffffffffffffffffffffffffffff168173ffffffffffffffffffffffffffffffffffffffff167f8be0079c531659141344cd1fd0a4f28419497f9722a3daafe3b4186f6b6457e060405160405180910390a35050565b8173ffffffffffffffffffffffffffffffffffffffff168373ffffffffffffffffffffffffffffffffffffffff161415611260576040517f08c379a000000000000000000000000000000000000000000000000000000000815260040161125790612c86565b60405180910390fd5b80600560008573ffffffffffffffffffffffffffffffffffffffff1673ffffffffffffffffffffffffffffffffffffffff16815260200190815260200160002060008473ffffffffffffffffffffffffffffffffffffffff1673ffffffffffffffffffffffffffffffffffffffff16815260200190815260200160002060006101000a81548160ff0219169083151502179055508173ffffffffffffffffffffffffffffffffffffffff168373ffffffffffffffffffffffffffffffffffffffff167f17307eab39ab6107e8899845ad3d59bd9653f200f220920489ca2b5937696c3183604051611351919061212b565b60405180910390a3505050565b611369848484610d6a565b61137584848484611735565b6113b4576040517f08c379a00000000000000000000000000000000000000000000000000000000081526004016113ab90612d18565b60405180910390fd5b50505050565b60606113c582610bc9565b60006006600084815260200190815260200160002080546113e590612732565b80601f016020809104026020016040519081016040528092919081815260200182805461141190612732565b801561145e5780601f106114335761010080835404028352916020019161145e565b820191906000526020600020905b81548152906001019060200180831161144157829003601f168201915b50505050509050600061146f6118cc565b90506000815114156114855781925050506114c8565b6000825111156114ba5780826040516020016114a2929190612d74565b604051602081830303815290604052925050506114c8565b6114c3846118e3565b925050505b919050565b6001816000016000828254019250508190555050565b6114fd82826040518060200160405280600081525061194b565b5050565b61150a82611575565b611549576040517f08c379a000000000000000000000000000000000000000000000000000000000815260040161154090612e0a565b60405180910390fd5b80600660008481526020019081526020016000209080519060200190611570929190611f60565b505050565b60008073ffffffffffffffffffffffffffffffffffffffff1661159783611070565b73ffffffffffffffffffffffffffffffffffffffff1614159050919050565b60018111156116d657600073ffffffffffffffffffffffffffffffffffffffff168473ffffffffffffffffffffffffffffffffffffffff161461164a5780600360008673ffffffffffffffffffffffffffffffffffffffff1673ffffffffffffffffffffffffffffffffffffffff16815260200190815260200160002060008282546116429190612e59565b925050819055505b600073ffffffffffffffffffffffffffffffffffffffff168373ffffffffffffffffffffffffffffffffffffffff16146116d55780600360008573ffffffffffffffffffffffffffffffffffffffff1673ffffffffffffffffffffffffffffffffffffffff16815260200190815260200160002060008282546116cd9190612e8d565b925050819055505b5b50505050565b50505050565b6116eb816119a6565b600060066000838152602001908152602001600020805461170b90612732565b905014611732576006600082815260200190815260200160002060006117319190611fe6565b5b50565b60006117568473ffffffffffffffffffffffffffffffffffffffff16611af4565b156118bf578373ffffffffffffffffffffffffffffffffffffffff1663150b7a0261177f610c14565b8786866040518563ffffffff1660e01b81526004016117a19493929190612f38565b602060405180830381600087803b1580156117bb57600080fd5b505af19250505080156117ec57506040513d601f19601f820116820180604052508101906117e99190612f99565b60015b61186f573d806000811461181c576040519150601f19603f3d011682016040523d82523d6000602084013e611821565b606091505b50600081511415611867576040517f08c379a000000000000000000000000000000000000000000000000000000000815260040161185e90612d18565b60405180910390fd5b805181602001fd5b63150b7a0260e01b7bffffffffffffffffffffffffffffffffffffffffffffffffffffffff1916817bffffffffffffffffffffffffffffffffffffffffffffffffffffffff1916149150506118c4565b600190505b949350505050565b606060405180602001604052806000815250905090565b60606118ee82610bc9565b60006118f86118cc565b905060008151116119185760405180602001604052806000815250611943565b8061192284611b17565b604051602001611933929190612d74565b6040516020818303038152906040525b915050919050565b6119558383611bef565b6119626000848484611735565b6119a1576040517f08c379a000000000000000000000000000000000000000000000000000000000815260040161199890612d18565b60405180910390fd5b505050565b60006119b182610767565b90506119c18160008460016115b6565b6119ca82610767565b90506004600083815260200190815260200160002060006101000a81549073ffffffffffffffffffffffffffffffffffffffff02191690556001600360008373ffffffffffffffffffffffffffffffffffffffff1673ffffffffffffffffffffffffffffffffffffffff168152602001908152602001600020600082825403925050819055506002600083815260200190815260200160002060006101000a81549073ffffffffffffffffffffffffffffffffffffffff021916905581600073ffffffffffffffffffffffffffffffffffffffff168273ffffffffffffffffffffffffffffffffffffffff167fddf252ad1be2c89b69c2b068fc378daa952ba7f163c4a11628f55a4df523b3ef60405160405180910390a4611af08160008460016116dc565b5050565b6000808273ffffffffffffffffffffffffffffffffffffffff163b119050919050565b606060006001611b2684611e0d565b01905060008167ffffffffffffffff811115611b4557611b44612418565b5b6040519080825280601f01601f191660200182016040528015611b775781602001600182028036833780820191505090505b509050600082602001820190505b600115611be4578080600190039150507f3031323334353637383961626364656600000000000000000000000000000000600a86061a8153600a8581611bce57611bcd612fc6565b5b0494506000851415611bdf57611be4565b611b85565b819350505050919050565b600073ffffffffffffffffffffffffffffffffffffffff168273ffffffffffffffffffffffffffffffffffffffff161415611c5f576040517f08c379a0000000000000000000000000000000000000000000000000000000008152600401611c5690613041565b60405180910390fd5b611c6881611575565b15611ca8576040517f08c379a0000000000000000000000000000000000000000000000000000000008152600401611c9f906130ad565b60405180910390fd5b611cb66000838360016115b6565b611cbf81611575565b15611cff576040517f08c379a0000000000000000000000000000000000000000000000000000000008152600401611cf6906130ad565b60405180910390fd5b6001600360008473ffffffffffffffffffffffffffffffffffffffff1673ffffffffffffffffffffffffffffffffffffffff16815260200190815260200160002060008282540192505081905550816002600083815260200190815260200160002060006101000a81548173ffffffffffffffffffffffffffffffffffffffff021916908373ffffffffffffffffffffffffffffffffffffffff160217905550808273ffffffffffffffffffffffffffffffffffffffff16600073ffffffffffffffffffffffffffffffffffffffff167fddf252ad1be2c89b69c2b068fc378daa952ba7f163c4a11628f55a4df523b3ef60405160405180910390a4611e096000838360016116dc565b5050565b600080600090507a184f03e93ff9f4daa797ed6e38ed64bf6a1f0100000000000000008310611e6b577a184f03e93ff9f4daa797ed6e38ed64bf6a1f0100000000000000008381611e6157611e60612fc6565b5b0492506040810190505b6d04ee2d6d415b85acef81000000008310611ea8576d04ee2d6d415b85acef81000000008381611e9e57611e9d612fc6565b5b0492506020810190505b662386f26fc100008310611ed757662386f26fc100008381611ecd57611ecc612fc6565b5b0492506010810190505b6305f5e1008310611f00576305f5e1008381611ef657611ef5612fc6565b5b0492506008810190505b6127108310611f25576127108381611f1b57611f1a612fc6565b5b0492506004810190505b60648310611f485760648381611f3e57611f3d612fc6565b5b0492506002810190505b600a8310611f57576001810190505b80915050919050565b828054611f6c90612732565b90600052602060002090601f016020900481019282611f8e5760008555611fd5565b82601f10611fa757805160ff1916838001178555611fd5565b82800160010185558215611fd5579182015b82811115611fd4578251825591602001919060010190611fb9565b5b509050611fe29190612026565b5090565b508054611ff290612732565b6000825580601f106120045750612023565b601f0160209004906000526020600020908101906120229190612026565b5b50565b5b8082111561203f576000816000905550600101612027565b5090565b6000819050919050565b61205681612043565b82525050565b6000602082019050612071600083018461204d565b92915050565b6000604051905090565b600080fd5b600080fd5b60007fffffffff0000000000000000000000000000000000000000000000000000000082169050919050565b6120c08161208b565b81146120cb57600080fd5b50565b6000813590506120dd816120b7565b92915050565b6000602082840312156120f9576120f8612081565b5b6000612107848285016120ce565b91505092915050565b60008115159050919050565b61212581612110565b82525050565b6000602082019050612140600083018461211c565b92915050565b600081519050919050565b600082825260208201905092915050565b60005b83811015612180578082015181840152602081019050612165565b8381111561218f576000848401525b50505050565b6000601f19601f8301169050919050565b60006121b182612146565b6121bb8185612151565b93506121cb818560208601612162565b6121d481612195565b840191505092915050565b600060208201905081810360008301526121f981846121a6565b905092915050565b61220a81612043565b811461221557600080fd5b50565b60008135905061222781612201565b92915050565b60006020828403121561224357612242612081565b5b600061225184828501612218565b91505092915050565b600073ffffffffffffffffffffffffffffffffffffffff82169050919050565b60006122858261225a565b9050919050565b6122958161227a565b82525050565b60006020820190506122b0600083018461228c565b92915050565b6122bf8161227a565b81146122ca57600080fd5b50565b6000813590506122dc816122b6565b92915050565b600080604083850312156122f9576122f8612081565b5b6000612307858286016122cd565b925050602061231885828601612218565b9150509250929050565b60008060006060848603121561233b5761233a612081565b5b6000612349868287016122cd565b935050602061235a868287016122cd565b925050604061236b86828701612218565b9150509250925092565b60006020828403121561238b5761238a612081565b5b6000612399848285016122cd565b91505092915050565b6123ab81612110565b81146123b657600080fd5b50565b6000813590506123c8816123a2565b92915050565b600080604083850312156123e5576123e4612081565b5b60006123f3858286016122cd565b9250506020612404858286016123b9565b9150509250929050565b600080fd5b600080fd5b7f4e487b7100000000000000000000000000000000000000000000000000000000600052604160045260246000fd5b61245082612195565b810181811067ffffffffffffffff8211171561246f5761246e612418565b5b80604052505050565b6000612482612077565b905061248e8282612447565b919050565b600067ffffffffffffffff8211156124ae576124ad612418565b5b6124b782612195565b9050602081019050919050565b82818337600083830152505050565b60006124e66124e184612493565b612478565b90508281526020810184848401111561250257612501612413565b5b61250d8482856124c4565b509392505050565b600082601f83011261252a5761252961240e565b5b813561253a8482602086016124d3565b91505092915050565b6000806000806080858703121561255d5761255c612081565b5b600061256b878288016122cd565b945050602061257c878288016122cd565b935050604061258d87828801612218565b925050606085013567ffffffffffffffff8111156125ae576125ad612086565b5b6125ba87828801612515565b91505092959194509250565b600067ffffffffffffffff8211156125e1576125e0612418565b5b6125ea82612195565b9050602081019050919050565b600061260a612605846125c6565b612478565b90508281526020810184848401111561262657612625612413565b5b6126318482856124c4565b509392505050565b600082601f83011261264e5761264d61240e565b5b813561265e8482602086016125f7565b91505092915050565b6000806040838503121561267e5761267d612081565b5b600061268c858286016122cd565b925050602083013567ffffffffffffffff8111156126ad576126ac612086565b5b6126b985828601612639565b9150509250929050565b600080604083850312156126da576126d9612081565b5b60006126e8858286016122cd565b92505060206126f9858286016122cd565b9150509250929050565b7f4e487b7100000000000000000000000000000000000000000000000000000000600052602260045260246000fd5b6000600282049050600182168061274a57607f821691505b6020821081141561275e5761275d612703565b5b50919050565b7f4552433732313a20617070726f76616c20746f2063757272656e74206f776e6560008201527f7200000000000000000000000000000000000000000000000000000000000000602082015250565b60006127c0602183612151565b91506127cb82612764565b604082019050919050565b600060208201905081810360008301526127ef816127b3565b9050919050565b7f4552433732313a20617070726f76652063616c6c6572206973206e6f7420746f60008201527f6b656e206f776e6572206f7220617070726f76656420666f7220616c6c000000602082015250565b6000612852603d83612151565b915061285d826127f6565b604082019050919050565b6000602082019050818103600083015261288181612845565b9050919050565b7f4552433732313a2063616c6c6572206973206e6f7420746f6b656e206f776e6560008201527f72206f7220617070726f76656400000000000000000000000000000000000000602082015250565b60006128e4602d83612151565b91506128ef82612888565b604082019050919050565b60006020820190508181036000830152612913816128d7565b9050919050565b7f4552433732313a20696e76616c696420746f6b656e2049440000000000000000600082015250565b6000612950601883612151565b915061295b8261291a565b602082019050919050565b6000602082019050818103600083015261297f81612943565b9050919050565b7f4552433732313a2061646472657373207a65726f206973206e6f74206120766160008201527f6c6964206f776e65720000000000000000000000000000000000000000000000602082015250565b60006129e2602983612151565b91506129ed82612986565b604082019050919050565b60006020820190508181036000830152612a11816129d5565b9050919050565b7f4f776e61626c653a206e6577206f776e657220697320746865207a65726f206160008201527f6464726573730000000000000000000000000000000000000000000000000000602082015250565b6000612a74602683612151565b9150612a7f82612a18565b604082019050919050565b60006020820190508181036000830152612aa381612a67565b9050919050565b7f4552433732313a207472616e736665722066726f6d20696e636f72726563742060008201527f6f776e6572000000000000000000000000000000000000000000000000000000602082015250565b6000612b06602583612151565b9150612b1182612aaa565b604082019050919050565b60006020820190508181036000830152612b3581612af9565b9050919050565b7f4552433732313a207472616e7366657220746f20746865207a65726f2061646460008201527f7265737300000000000000000000000000000000000000000000000000000000602082015250565b6000612b98602483612151565b9150612ba382612b3c565b604082019050919050565b60006020820190508181036000830152612bc781612b8b565b9050919050565b7f4f776e61626c653a2063616c6c6572206973206e6f7420746865206f776e6572600082015250565b6000612c04602083612151565b9150612c0f82612bce565b602082019050919050565b60006020820190508181036000830152612c3381612bf7565b9050919050565b7f4552433732313a20617070726f766520746f2063616c6c657200000000000000600082015250565b6000612c70601983612151565b9150612c7b82612c3a565b602082019050919050565b60006020820190508181036000830152612c9f81612c63565b9050919050565b7f4552433732313a207472616e7366657220746f206e6f6e20455243373231526560008201527f63656976657220696d706c656d656e7465720000000000000000000000000000602082015250565b6000612d02603283612151565b9150612d0d82612ca6565b604082019050919050565b60006020820190508181036000830152612d3181612cf5565b9050919050565b600081905092915050565b6000612d4e82612146565b612d588185612d38565b9350612d68818560208601612162565b80840191505092915050565b6000612d808285612d43565b9150612d8c8284612d43565b91508190509392505050565b7f45524337323155524953746f726167653a2055524920736574206f66206e6f6e60008201527f6578697374656e7420746f6b656e000000000000000000000000000000000000602082015250565b6000612df4602e83612151565b9150612dff82612d98565b604082019050919050565b60006020820190508181036000830152612e2381612de7565b9050919050565b7f4e487b7100000000000000000000000000000000000000000000000000000000600052601160045260246000fd5b6000612e6482612043565b9150612e6f83612043565b925082821015612e8257612e81612e2a565b5b828203905092915050565b6000612e9882612043565b9150612ea383612043565b9250827fffffffffffffffffffffffffffffffffffffffffffffffffffffffffffffffff03821115612ed857612ed7612e2a565b5b828201905092915050565b600081519050919050565b600082825260208201905092915050565b6000612f0a82612ee3565b612f148185612eee565b9350612f24818560208601612162565b612f2d81612195565b840191505092915050565b6000608082019050612f4d600083018761228c565b612f5a602083018661228c565b612f67604083018561204d565b8181036060830152612f798184612eff565b905095945050505050565b600081519050612f93816120b7565b92915050565b600060208284031215612faf57612fae612081565b5b6000612fbd84828501612f84565b91505092915050565b7f4e487b7100000000000000000000000000000000000000000000000000000000600052601260045260246000fd5b7f4552433732313a206d696e7420746f20746865207a65726f2061646472657373600082015250565b600061302b602083612151565b915061303682612ff5565b602082019050919050565b6000602082019050818103600083015261305a8161301e565b9050919050565b7f4552433732313a20746f6b656e20616c7265616479206d696e74656400000000600082015250565b6000613097601c83612151565b91506130a282613061565b602082019050919050565b600060208201905081810360008301526130c68161308a565b905091905056fea2646970667358221220b2da9bc9249b47860bae3fde1049285cff816e8b4349b1af73aca47f2af6926264736f6c63430008090033",
  "linkReferences": {},
  "deployedLinkReferences": {}
}